:020000040000FA
:020000006A286C
:08000800A000030EA100210E6F
:100010008300A00E200E0900000000000000000078
:100020000000000008000930220203193D280830B2
:1000300022020319422807302202031947280630FA
:10004000220203194C2805302202031951280430DA
:100050002202031956280330220203195B280230BA
:10006000220203196028013022020319652838286A
:10007000851605120511851408008516051205114F
:1000800085100800851205160515851408008512CF
:10009000051605158510080085120516051185142D
:1000A0000800851205160511851008008512051235
:1000B0000515851408008512051205158510080020
:1000C0008512051205118514080085120512051107
:1000D000851008008316003085009F0104308100E0
:1000E00000308B0083120730990005108516051229
:1000F000051185140A30A3000930A2005B30A50069
:10010000FE30A4000C20A40B8228A50B802813200D
:10011000A203A303031D7E280A30A3000930A20016
:0E012000051C9328952805147E2805107E28BE
:02400E00A43FCD
:00000001FF
